:020000040000fa
:080000000001040000000000f3
:020000040000fa
:040008003e020000b4
:020000040000fa
:04000c003e020000b0
:020000040000fa
:040010003e020000ac
:020000040000fa
:040014003e020000a8
:020000040000fa
:040018003e020000a4
:020000040000fa
:04001c003e020000a0
:020000040000fa
:040020003e0200009c
:020000040000fa
:040024003e02000098
:020000040000fa
:040028003e02000094
:020000040000fa
:04002c003e02000090
:020000040000fa
:040030003e0200008c
:020000040000fa
:0400340004020000c2
:020000040000fa
:040038003e02000084
:020000040000fa
:04003c003e02000080
:020000040000fa
:040040003e0200007c
:020000040000fa
:040044003e02000078
:020000040000fa
:040048003e02000074
:020000040000fa
:04004c003e02000070
:020000040000fa
:040050003e0200006c
:020000040000fa
:040054003e02000068
:020000040000fa
:040058003e02000064
:020000040000fa
:04005c003e02000060
:020000040000fa
:040060003e0200005c
:020000040000fa
:040064003e02000058
:020000040000fa
:040068003e02000054
:020000040000fa
:04006c003e02000050
:020000040000fa
:040070003e0200004c
:020000040000fa
:040074003e02000048
:020000040000fa
:040078003e02000044
:020000040000fa
:04007c003e02000040
:020000040000fa
:040080003e0200003c
:020000040000fa
:040084003e02000038
:020000040000fa
:040088003e02000034
:020000040000fa
:04008c003e02000030
:020000040000fa
:040090003e0200002c
:020000040000fa
:040094003e02000028
:020000040000fa
:040098003e02000024
:020000040000fa
:04009c003e02000020
:020000040000fa
:0400a0003e0200001c
:020000040000fa
:0400a4003e02000018
:020000040000fa
:0400a8003e02000014
:020000040000fa
:0400ac003e02000010
:020000040000fa
:0400b0003e0200000c
:020000040000fa
:0400b4003e02000008
:020000040000fa
:0400b8003e02000004
:020000040000fa
:0400bc003e02000000
:020000040000fa
:0400c0003e020000fc
:020000040000fa
:0400c4003e020000f8
:020000040000fa
:0400c8003e020000f4
:020000040000fa
:0400cc003e020000f0
:020000040000fa
:0400d0003e020000ec
:020000040000fa
:0400d4003e020000e8
:020000040000fa
:0400d8003e020000e4
:020000040000fa
:0400dc003e020000e0
:020000040000fa
:0400e0003e020000dc
:020000040000fa
:0400e4003e020000d8
:020000040000fa
:0400e8003e020000d4
:020000040000fa
:0400ec003e020000d0
:020000040000fa
:0400f0003e020000cc
:020000040000fa
:0400f4003e020000c8
:020000040000fa
:0400f8003e020000c4
:020000040000fa
:0400fc003e020000c0
:020000040000fa
:040100003e020000bb
:020000040000fa
:040104003e020000b7
:020000040000fa
:040108003e020000b3
:020000040000fa
:04010c003e020000af
:020000040000fa
:040110003e020000ab
:020000040000fa
:040114003e020000a7
:020000040000fa
:040118003e020000a3
:020000040000fa
:04011c003e0200009f
:020000040000fa
:040120003e0200009b
:020000040000fa
:040124003e02000097
:020000040000fa
:040128003e02000093
:020000040000fa
:04012c003e0200008f
:020000040000fa
:040130003e0200008b
:020000040000fa
:040134003e02000087
:020000040000fa
:040138003e02000083
:020000040000fa
:04013c003e0200007f
:020000040000fa
:040140003e0200007b
:020000040000fa
:040144003e02000077
:020000040000fa
:040148003e02000073
:020000040000fa
:04014c003e0200006f
:020000040000fa
:040150003e0200006b
:020000040000fa
:040154003e02000067
:020000040000fa
:040158003e02000063
:020000040000fa
:04015c003e0200005f
:020000040000fa
:040160003e0200005b
:020000040000fa
:040164003e02000057
:020000040000fa
:040168003e02000053
:020000040000fa
:04016c003e0200004f
:020000040000fa
:040170003e0200004b
:020000040000fa
:040174003e02000047
:020000040000fa
:040178003e02000043
:020000040000fa
:04017c003e0200003f
:020000040000fa
:040180003e0200003b
:020000040000fa
:040184003e02000037
:020000040000fa
:040188003e02000033
:020000040000fa
:04018c003e0200002f
:020000040000fa
:040190003e0200002b
:020000040000fa
:040194003e02000027
:020000040000fa
:040198003e02000023
:020000040000fa
:04019c003e0200001f
:020000040000fa
:0401a0003e0200001b
:020000040000fa
:0401a4003e02000017
:020000040000fa
:0401a8003e02000013
:020000040000fa
:0401ac003e0200000f
:020000040000fa
:0401b0003e0200000b
:020000040000fa
:0401b4003e02000007
:020000040000fa
:0401b8003e02000003
:020000040000fa
:0401bc003e020000ff
:020000040000fa
:0401c0003e020000fb
:020000040000fa
:0401c4003e020000f7
:020000040000fa
:0401c8003e020000f3
:020000040000fa
:0401cc003e020000ef
:020000040000fa
:0401d0003e020000eb
:020000040000fa
:0401d4003e020000e7
:020000040000fa
:0401d8003e020000e3
:020000040000fa
:0401dc003e020000df
:020000040000fa
:0401e0003e020000db
:020000040000fa
:0401e4003e020000d7
:020000040000fa
:0401e8003e020000d3
:020000040000fa
:0401ec003e020000cf
:020000040000fa
:0401f0003e020000cb
:020000040000fa
:0401f4003e020000c7
:020000040000fa
:0401f8003e020000c3
:020000040000fa
:0401fc003e020000bf
:020000040000fa
:100200000f8020000e7f24000e01880000000000f7
:10021000000020000000e000020032000001200089
:100220002002880014000700960007000000e0008c
:1002300003003a0000002000010020000200370007
:100240000000200001002000810f7000010032003a
:1002500014000700000020000000e000020032004f
:1002600000000200000000008c02020000000000fc
:100270000040da000000fe004440a90020002000f9
:100280000000e00003003200100020009001880010
:100290004440a800000006008a1f78008b1f7800e9
:1002a00000000600a1028800800478000000eb0036
:1002b0001f003700e284440054a0b4009905ba003e
:1002c000e284440054a0b4009906ba00e2844400d9
:1002d00054a0b4000006eb00476fde00fd07b2003b
:1002e000ae018800636ce10003003a00eaff0700fa
:1002f0000000eb000e003700606ce10008003a00df
:10030000004deb000a05e800020039003420ec0043
:100310000af0a0008b05e900f9ff3e000400370059
:100320006168e100010032000086eb000b0007006d
:1003300019c7ba001905ba000e04e00003003a001c
:100340000a00e000dbff3a0000000600fe07b200f2
:10035000ae0288008a047800f5ff37000cd0a300b5
:10036000e20f4d001c00390089027800354dba00bb
:100370000a05e800020039003420ec000af0a00071
:100380008b05e9000f003200254dba000a05e80090
:10039000020039003420ec000af0a0008b05e900cf
:1003a000080032000c00e0000600320015cdba0053
:1003b0000a05e800020039003420ec000af0a00031
:1003c0008b05e9008984e80054a0b4000b00e0002c
:1003d000e2ff3a00000006009902ba00055d7800cd
:1003e0008b05e900f7ff3200c82ade00055d7800c2
:1003f0008b05e900f3ff32000c00e000f1ff320052
:1004000019ddba00eeff370000a0fe003200f80050
:100410003400f800881f780018002000a801880028
:1004200018002000980188004f0478000000fa00ae
:100430009021ef008860a900d03380004600de00e4
:100440006140600000c0ea00614060000080fb0085
:10045000610060004600dd00d13380000160a10032
:1004600001007000d03388000080fa003400f900e9
:100470003200f9000080fe00004006000040da0073
:100480000000fe00000005006022b8000602200007
:100490000000d0008180d2000482d2008582d20088
:1004a0000000a0000202520083825a0003003100c3
:1004b0000202420083824a000000a1000603e90014
:0804c000f3ff3a000000060002
:020000040000fa
:1004c8000200fa00000f78009421ef009021ef005d
:1004d8009e007800910c8800a10c80000003200089
:1004e80001007000a00c8800410580000000270072
:1004f80001007000400588008860a9009860a80085
:1005080083e0a80095e1a8000080fa00000006003a
:100518000400fa0076c6a9007ac6a900803e200029
:1005280001002000008fbe001e00be0002802e00c9
:1005380033002000d2ff070080007800002021004f
:100548000088b90000007800ddff07000140fe00c8
:04055800feff37006b
:020000040000fa
:020000040005f5
:045e0000ffffff00a1
:020000040000fa
:020000040005f5
:045e2000ffffff0081
:020000040000fa
:020000040005f5
:045e3000f8ffff0078
:020000040000fa
:020000040005f5
:045e3800b7ffff00b1
:020000040000fa
:020000040005f5
:045e4000ffffff0061
:020000040000fa
:020000040005f5
:045e4800ffffff0059
:020000040000fa
:020000040005f5
:045e5000deffff0072
:020000040000fa
:020000040005f5
:045e5800ffffff0049
:00000001FF
