:020000040000fa
:080000000001040000000000f3
:020000040000fa
:0400080004020000ee
:020000040000fa
:04000c0004020000ea
:020000040000fa
:0400100004020000e6
:020000040000fa
:0400140004020000e2
:020000040000fa
:0400180004020000de
:020000040000fa
:04001c0004020000da
:020000040000fa
:0400200004020000d6
:020000040000fa
:0400240004020000d2
:020000040000fa
:0400280004020000ce
:020000040000fa
:04002c0004020000ca
:020000040000fa
:0400300004020000c6
:020000040000fa
:0400340004020000c2
:020000040000fa
:0400380004020000be
:020000040000fa
:04003c0004020000ba
:020000040000fa
:0400400004020000b6
:020000040000fa
:0400440004020000b2
:020000040000fa
:0400480004020000ae
:020000040000fa
:04004c0004020000aa
:020000040000fa
:0400500004020000a6
:020000040000fa
:0400540004020000a2
:020000040000fa
:04005800040200009e
:020000040000fa
:04005c00040200009a
:020000040000fa
:040060000402000096
:020000040000fa
:040064000402000092
:020000040000fa
:04006800040200008e
:020000040000fa
:04006c00040200008a
:020000040000fa
:040070000402000086
:020000040000fa
:040074000402000082
:020000040000fa
:04007800040200007e
:020000040000fa
:04007c00040200007a
:020000040000fa
:040080000402000076
:020000040000fa
:040084000402000072
:020000040000fa
:04008800040200006e
:020000040000fa
:04008c00040200006a
:020000040000fa
:040090000402000066
:020000040000fa
:040094000402000062
:020000040000fa
:04009800040200005e
:020000040000fa
:04009c00040200005a
:020000040000fa
:0400a0000402000056
:020000040000fa
:0400a4000402000052
:020000040000fa
:0400a800040200004e
:020000040000fa
:0400ac00040200004a
:020000040000fa
:0400b0000402000046
:020000040000fa
:0400b4000402000042
:020000040000fa
:0400b800040200003e
:020000040000fa
:0400bc00040200003a
:020000040000fa
:0400c0000402000036
:020000040000fa
:0400c4000402000032
:020000040000fa
:0400c800040200002e
:020000040000fa
:0400cc00040200002a
:020000040000fa
:0400d0000402000026
:020000040000fa
:0400d4000402000022
:020000040000fa
:0400d800040200001e
:020000040000fa
:0400dc00040200001a
:020000040000fa
:0400e0000402000016
:020000040000fa
:0400e4000402000012
:020000040000fa
:0400e800040200000e
:020000040000fa
:0400ec00040200000a
:020000040000fa
:0400f0000402000006
:020000040000fa
:0400f4000402000002
:020000040000fa
:0400f80004020000fe
:020000040000fa
:0400fc0004020000fa
:020000040000fa
:0401000004020000f5
:020000040000fa
:0401040004020000f1
:020000040000fa
:0401080004020000ed
:020000040000fa
:04010c0004020000e9
:020000040000fa
:0401100004020000e5
:020000040000fa
:0401140004020000e1
:020000040000fa
:0401180004020000dd
:020000040000fa
:04011c0004020000d9
:020000040000fa
:0401200004020000d5
:020000040000fa
:0401240004020000d1
:020000040000fa
:0401280004020000cd
:020000040000fa
:04012c0004020000c9
:020000040000fa
:0401300004020000c5
:020000040000fa
:0401340004020000c1
:020000040000fa
:0401380004020000bd
:020000040000fa
:04013c0004020000b9
:020000040000fa
:0401400004020000b5
:020000040000fa
:0401440004020000b1
:020000040000fa
:0401480004020000ad
:020000040000fa
:04014c0004020000a9
:020000040000fa
:0401500004020000a5
:020000040000fa
:0401540004020000a1
:020000040000fa
:04015800040200009d
:020000040000fa
:04015c000402000099
:020000040000fa
:040160000402000095
:020000040000fa
:040164000402000091
:020000040000fa
:04016800040200008d
:020000040000fa
:04016c000402000089
:020000040000fa
:040170000402000085
:020000040000fa
:040174000402000081
:020000040000fa
:04017800040200007d
:020000040000fa
:04017c000402000079
:020000040000fa
:040180000402000075
:020000040000fa
:040184000402000071
:020000040000fa
:04018800040200006d
:020000040000fa
:04018c000402000069
:020000040000fa
:040190000402000065
:020000040000fa
:040194000402000061
:020000040000fa
:04019800040200005d
:020000040000fa
:04019c000402000059
:020000040000fa
:0401a0000402000055
:020000040000fa
:0401a4000402000051
:020000040000fa
:0401a800040200004d
:020000040000fa
:0401ac000402000049
:020000040000fa
:0401b0000402000045
:020000040000fa
:0401b4000402000041
:020000040000fa
:0401b800040200003d
:020000040000fa
:0401bc000402000039
:020000040000fa
:0401c0000402000035
:020000040000fa
:0401c4000402000031
:020000040000fa
:0401c800040200002d
:020000040000fa
:0401cc000402000029
:020000040000fa
:0401d0000402000025
:020000040000fa
:0401d4000402000021
:020000040000fa
:0401d800040200001d
:020000040000fa
:0401dc000402000019
:020000040000fa
:0401e0000402000015
:020000040000fa
:0401e4000402000011
:020000040000fa
:0401e800040200000d
:020000040000fa
:0401ec000402000009
:020000040000fa
:0401f0000402000005
:020000040000fa
:0401f4000402000001
:020000040000fa
:0401f80004020000fd
:020000040000fa
:0401fc0004020000f9
:020000040000fa
:100200000f8020000e7f24000e01880000000000f7
:10021000000020000000e000020032000001200089
:100220002002880014000700790007000000e000a9
:1002300003003a0000002000010020000200370007
:100240000000200001002000810f7000010032003a
:1002500014000700000020000000e000020032004f
:100260000000020000000000be03020000000000c9
:100270000040da000000fe004440a90020002000f9
:100280000000e00003003200100020009001880010
:100290004440a800000006008a1f78008b1f7800e9
:1002a00000000600a1028800800478000000eb0036
:1002b0001f003700e284440054a0b4009905ba003e
:1002c000e284440054a0b4009906ba00e2844400d9
:1002d00054a0b4000006eb00476fde00fd07b2003b
:1002e000ae018800636ce10003003a00eaff0700fa
:1002f0000000eb000e003700606ce10008003a00df
:10030000004deb000a05e800020039003420ec0043
:100310000af0a0008b05e900f9ff3e000400370059
:100320006168e100010032000086eb000b0007006d
:1003300019c7ba001905ba000e04e00003003a001c
:100340000a00e000dbff3a0000000600fe07b200f2
:10035000ae0288008a047800f5ff37000cd0a300b5
:10036000e20f4d001c00390089027800354dba00bb
:100370000a05e800020039003420ec000af0a00071
:100380008b05e9000f003200254dba000a05e80090
:10039000020039003420ec000af0a0008b05e900cf
:1003a000080032000c00e0000600320015cdba0053
:1003b0000a05e800020039003420ec000af0a00031
:1003c0008b05e9008984e80054a0b4000b00e0002c
:1003d000e2ff3a00000006009902ba00055d7800cd
:1003e0008b05e900f7ff3200c82ade00055d7800c2
:1003f0008b05e900f3ff32000c00e000f1ff320052
:1004000019ddba00eeff37000040da000000fe0000
:0404100000000500e3
:020000040000fa
:100414000400fa00000f7800110798009e00900075
:1004240040062000808f5000020036004006200065
:1004340010079800f0072000a0118800f0072000a2
:10044400f0118800f0072000401288001e00780098
:10045400e10f50001f003a003022ef003222ef007b
:1004640031a2a9008111800000c0210001007000a8
:10047400801188003302a90032e2a90090118000a3
:10048400f001b3009011880032a2a900e007200017
:10049400900c8800900c80008000e8001e00900002
:1004a4000088b90000007800c200de00b0472100d7
:1004b4000008b8000100d100b0118800811180004b
:1004c40080ff2f00008060006000b300801188006e
:1004d400430037001e007800e20f50001f003a006e
:1004e4003a22ef003c22ef003ba2a900d111800088
:1004f40000c0210001007000d01188003d02a90055
:100504003ce2a900e0118000f001b300e011880092
:100514003ca2a900e0072000e00c8800e00c800069
:100524008000e8001e0090000088b90000007800f8
:10053400c200de00b04721000008b8000100d1006d
:1005440000128800d111800080ff2f00008060001d
:100554006000b300d0118800210037001e0078002d
:10056400e30f50001e003a004422ef004622ef0041
:1005740045a2a9002112800000c0210001007000e2
:10058400201288004702a90046e2a9003012800028
:10059400f001b3003012880046a2a900e007200051
:1005a400f00c8800f00c80008000e8001e00900031
:1005b4000088b90000007800c200de00b0472100c6
:1005c4000008b8000100d1005012880021128000f8
:1005d40080ff2f00008060006000b30020128800bc
:1005e4000080fa00000006000400fa00000f780002
:1005f400110798009e00900040062000808f500054
:100604000200360040062000100798001e00780003
:10061400e10f50001b003a00801180006700600069
:100624000000e00005003a008111800080ff2f00e7
:10063400008060006000b300801188001e009000fc
:100644000000e00004003a008111800080ff2f00c8
:100654000080600080118800900c80008000e80019
:100664001e0090000088b90000007800c200de007f
:10067400b04721000008b8000100d100b011880083
:100684003b0037001e007800e20f50001b003a00c8
:10069400d0118000670060000000e00005003a000f
:1006a400d111800080ff2f00008060006000b30043
:1006b400d01188001e0090000000e00004003a0001
:1006c400d111800080ff2f0000806000d0118800cd
:1006d400e00c80008000e8001e0090000088b90053
:1006e40000007800c200de00b04721000008b80016
:1006f4000100d100001288001d0037001e007800a0
:10070400e30f50001a003a002012800067006000d6
:100714000000e00005003a002112800080ff2f0055
:10072400008060006000b300201288001e0090006a
:100734000000e00004003a002112800080ff2f0036
:100744000080600020128800f00c80008000e80027
:100754001e0090000088b90000007800c200de008e
:10076400b04721000008b8000100d10050128800f1
:100774000080fa00000006000200fa0083e0a800ee
:100784000361a90002a1a90000c1a90076c6a900bd
:10079400d13e800000f82f0000806000d000b3003c
:1007a400d03e880076e6a900d13e8000f00f2800f4
:1007b4008080600000e0200001007000d03e8800ce
:1007c40076a6a900c13e8000f00f2800808060005a
:1007d40000f0200001007000c03e880000c1a800a5
:1007e40070042000000f78009e0078003000200084
:0807f40007ff0700ffff3700bb
:020000040000fa
:020000040005f5
:045e0000ffffff00a1
:020000040000fa
:020000040005f5
:045e2000ffffff0081
:020000040000fa
:020000040005f5
:045e3000f8ffff0078
:020000040000fa
:020000040005f5
:045e3800bfffff00a9
:020000040000fa
:020000040005f5
:045e40009fffff00c1
:020000040000fa
:020000040005f5
:045e4800ffffff0059
:020000040000fa
:020000040005f5
:045e5000ffffff0051
:020000040000fa
:020000040005f5
:045e5800ffffff0049
:00000001FF
