:020000040000fa
:080000000001040000000000f3
:020000040000fa
:0400080050020000a2
:020000040000fa
:04000c00500200009e
:020000040000fa
:04001000500200009a
:020000040000fa
:040014005002000096
:020000040000fa
:040018005002000092
:020000040000fa
:04001c00500200008e
:020000040000fa
:04002000500200008a
:020000040000fa
:040024005002000086
:020000040000fa
:040028005002000082
:020000040000fa
:04002c00500200007e
:020000040000fa
:04003000500200007a
:020000040000fa
:040034005002000076
:020000040000fa
:040038005002000072
:020000040000fa
:04003c00500200006e
:020000040000fa
:04004000500200006a
:020000040000fa
:040044005002000066
:020000040000fa
:040048005002000062
:020000040000fa
:04004c00500200005e
:020000040000fa
:04005000500200005a
:020000040000fa
:040054005002000056
:020000040000fa
:040058005002000052
:020000040000fa
:04005c00500200004e
:020000040000fa
:04006000500200004a
:020000040000fa
:040064005002000046
:020000040000fa
:040068005002000042
:020000040000fa
:04006c00500200003e
:020000040000fa
:04007000500200003a
:020000040000fa
:040074005002000036
:020000040000fa
:040078005002000032
:020000040000fa
:04007c00500200002e
:020000040000fa
:04008000500200002a
:020000040000fa
:040084005002000026
:020000040000fa
:040088005002000022
:020000040000fa
:04008c00500200001e
:020000040000fa
:04009000500200001a
:020000040000fa
:040094005002000016
:020000040000fa
:040098005002000012
:020000040000fa
:04009c00500200000e
:020000040000fa
:0400a000500200000a
:020000040000fa
:0400a4005002000006
:020000040000fa
:0400a8005002000002
:020000040000fa
:0400ac0050020000fe
:020000040000fa
:0400b00050020000fa
:020000040000fa
:0400b40050020000f6
:020000040000fa
:0400b80050020000f2
:020000040000fa
:0400bc0050020000ee
:020000040000fa
:0400c00050020000ea
:020000040000fa
:0400c40050020000e6
:020000040000fa
:0400c80050020000e2
:020000040000fa
:0400cc0050020000de
:020000040000fa
:0400d00050020000da
:020000040000fa
:0400d40050020000d6
:020000040000fa
:0400d80050020000d2
:020000040000fa
:0400dc0050020000ce
:020000040000fa
:0400e00050020000ca
:020000040000fa
:0400e40050020000c6
:020000040000fa
:0400e80050020000c2
:020000040000fa
:0400ec0050020000be
:020000040000fa
:0400f00050020000ba
:020000040000fa
:0400f40050020000b6
:020000040000fa
:0400f80050020000b2
:020000040000fa
:0400fc0050020000ae
:020000040000fa
:0401000050020000a9
:020000040000fa
:0401040050020000a5
:020000040000fa
:0401080050020000a1
:020000040000fa
:04010c00500200009d
:020000040000fa
:0401100004020000e5
:020000040000fa
:040114005002000095
:020000040000fa
:040118005002000091
:020000040000fa
:04011c00500200008d
:020000040000fa
:040120005002000089
:020000040000fa
:040124005002000085
:020000040000fa
:040128005002000081
:020000040000fa
:04012c00500200007d
:020000040000fa
:040130005002000079
:020000040000fa
:040134005002000075
:020000040000fa
:040138005002000071
:020000040000fa
:04013c00500200006d
:020000040000fa
:040140005002000069
:020000040000fa
:040144005002000065
:020000040000fa
:040148005002000061
:020000040000fa
:04014c00500200005d
:020000040000fa
:040150005002000059
:020000040000fa
:040154005002000055
:020000040000fa
:040158005002000051
:020000040000fa
:04015c00500200004d
:020000040000fa
:040160005002000049
:020000040000fa
:040164005002000045
:020000040000fa
:040168005002000041
:020000040000fa
:04016c00500200003d
:020000040000fa
:040170005002000039
:020000040000fa
:040174005002000035
:020000040000fa
:040178005002000031
:020000040000fa
:04017c00500200002d
:020000040000fa
:040180005002000029
:020000040000fa
:040184005002000025
:020000040000fa
:040188005002000021
:020000040000fa
:04018c00500200001d
:020000040000fa
:040190005002000019
:020000040000fa
:040194005002000015
:020000040000fa
:040198005002000011
:020000040000fa
:04019c00500200000d
:020000040000fa
:0401a0005002000009
:020000040000fa
:0401a4005002000005
:020000040000fa
:0401a8005002000001
:020000040000fa
:0401ac0050020000fd
:020000040000fa
:0401b00050020000f9
:020000040000fa
:0401b40050020000f5
:020000040000fa
:0401b80050020000f1
:020000040000fa
:0401bc0050020000ed
:020000040000fa
:0401c00050020000e9
:020000040000fa
:0401c40050020000e5
:020000040000fa
:0401c80050020000e1
:020000040000fa
:0401cc0050020000dd
:020000040000fa
:0401d00050020000d9
:020000040000fa
:0401d40050020000d5
:020000040000fa
:0401d80050020000d1
:020000040000fa
:0401dc0050020000cd
:020000040000fa
:0401e00050020000c9
:020000040000fa
:0401e40050020000c5
:020000040000fa
:0401e80050020000c1
:020000040000fa
:0401ec0050020000bd
:020000040000fa
:0401f00050020000b9
:020000040000fa
:0401f40050020000b5
:020000040000fa
:0401f80050020000b1
:020000040000fa
:0401fc0050020000ad
:020000040000fa
:10020000ef8020000e7f24000e0188000000000017
:10021000000020000000e000020032000001200089
:1002200020028800140007009f0007000000e00083
:1002300003003a00a02e2000010020000200370039
:100240000000200001002000810f7000010032003a
:1002500014000700000020000000e000020032004f
:100260000000020000000000c802020000000000c0
:100270000040da000000fe004440a90020002000f9
:100280000000e00003003200100020009001880010
:100290004440a800000006008a1f78008b1f7800e9
:1002a00000000600a1028800800478000000eb0036
:1002b0001f003700e284440054a0b4009905ba003e
:1002c000e284440054a0b4009906ba00e2844400d9
:1002d00054a0b4000006eb00476fde00fd07b2003b
:1002e000ae018800636ce10003003a00eaff0700fa
:1002f0000000eb000e003700606ce10008003a00df
:10030000004deb000a05e800020039003420ec0043
:100310000af0a0008b05e900f9ff3e000400370059
:100320006168e100010032000086eb000b0007006d
:1003300019c7ba001905ba000e04e00003003a001c
:100340000a00e000dbff3a0000000600fe07b200f2
:10035000ae0288008a047800f5ff37000cd0a300b5
:10036000e20f4d001c00390089027800354dba00bb
:100370000a05e800020039003420ec000af0a00071
:100380008b05e9000f003200254dba000a05e80090
:10039000020039003420ec000af0a0008b05e900cf
:1003a000080032000c00e0000600320015cdba0053
:1003b0000a05e800020039003420ec000af0a00031
:1003c0008b05e9008984e80054a0b4000b00e0002c
:1003d000e2ff3a00000006009902ba00055d7800cd
:1003e0008b05e900f7ff3200c82ade00055d7800c2
:1003f0008b05e900f3ff32000c00e000f1ff320052
:1004000019ddba00eeff37003600f800809fbe000d
:10041000829fbe00849fbe00869fbe000000fa003f
:100420008f40a9007bc6a800e11f800000042000c7
:10043000008060000000e0000d003a0000000000b5
:10044000e01f8000620060000000e000fcff3a0056
:1004500000208000504088000cc8bf000040e80029
:100460000ce8b70000002b000020880001003700d6
:10047000fcc3a90000202100a107200047000700bd
:100480007bc6a9000080fa004f03be004f02be00e9
:100490004f01be004f00be003600f90000400600cc
:0c04a0000040da000000fe000000050033
:020000040000fa
:1004ac000000fa0083e0a900f5e3a9009f40a90031
:1004bc00f5a3a9000024ef000804a8008f40a900b0
:1004cc008f40a90021068000007020000100700000
:1004dc0020068800fcc3a900f583a900f543a800f9
:1004ec00f523a900f4c3a900f503a800f4e3a800c0
:1004fc00f4a3a900f623ef007e66a9007866a80095
:10050c007666a80077c6a9007bc6a9006a06a90072
:10051c006a26a9007e46a9007e66a900c13d80001e
:10052c0000fc2f0000806000a001b300c03d8800db
:10053c00c13d8000f00f2c008080600000b02100d5
:10054c0001007000c03d8800d13d800000fc2f00f0
:10055c00008060003000b300d03d8800b13e8000c8
:10056c0000f82f00008060007000b300b03e8800df
:10057c00f5e3a8009f40a80083e0a8000080fa00e3
:10058c00000006000000fa00c5ff0700ffff37005f
:020000040000fa
:10059c00f03fb1000180b10006003500ee03090008
:1005ac0000000000403fb1000180b100fbff3d00a6
:1005bc001000b000203fb0000200350000800900a0
:0805cc00000000000000060021
:020000040000fa
:1005d4000808000006000000800000000008000079
:1005e400080000008200000000a00000b000c0006d
:0805f40000d00000000000002f
:020000040000fa
:020000040005f5
:045e0000ffffff00a1
:020000040000fa
:020000040005f5
:045e2000ffffff0081
:020000040000fa
:020000040005f5
:045e3000f8ffff0078
:020000040000fa
:020000040005f5
:045e3800bfffff00a9
:020000040000fa
:020000040005f5
:045e4000ffffff0061
:020000040000fa
:020000040005f5
:045e4800ffffff0059
:020000040000fa
:020000040005f5
:045e5000deffff0072
:020000040000fa
:020000040005f5
:045e5800ffffff0049
:00000001FF
