:020000040000fa
:080000000001040000000000f3
:020000040000fa
:040008009c02000056
:020000040000fa
:04000c009c02000052
:020000040000fa
:040010009c0200004e
:020000040000fa
:040014009c0200004a
:020000040000fa
:040018009c02000046
:020000040000fa
:04001c009c02000042
:020000040000fa
:040020009c0200003e
:020000040000fa
:040024009c0200003a
:020000040000fa
:040028009c02000036
:020000040000fa
:04002c009c02000032
:020000040000fa
:040030009c0200002e
:020000040000fa
:040034006202000064
:020000040000fa
:040038009c02000026
:020000040000fa
:04003c009c02000022
:020000040000fa
:040040009c0200001e
:020000040000fa
:040044009c0200001a
:020000040000fa
:040048009c02000016
:020000040000fa
:04004c009c02000012
:020000040000fa
:040050009c0200000e
:020000040000fa
:040054009c0200000a
:020000040000fa
:040058009c02000006
:020000040000fa
:04005c009c02000002
:020000040000fa
:040060009c020000fe
:020000040000fa
:040064009c020000fa
:020000040000fa
:040068009c020000f6
:020000040000fa
:04006c009c020000f2
:020000040000fa
:040070009c020000ee
:020000040000fa
:040074009c020000ea
:020000040000fa
:040078009c020000e6
:020000040000fa
:04007c009c020000e2
:020000040000fa
:040080009c020000de
:020000040000fa
:040084009c020000da
:020000040000fa
:040088009c020000d6
:020000040000fa
:04008c009c020000d2
:020000040000fa
:040090009c020000ce
:020000040000fa
:040094009c020000ca
:020000040000fa
:040098009c020000c6
:020000040000fa
:04009c009c020000c2
:020000040000fa
:0400a0009c020000be
:020000040000fa
:0400a4009c020000ba
:020000040000fa
:0400a8009c020000b6
:020000040000fa
:0400ac009c020000b2
:020000040000fa
:0400b0009c020000ae
:020000040000fa
:0400b4009c020000aa
:020000040000fa
:0400b8009c020000a6
:020000040000fa
:0400bc009c020000a2
:020000040000fa
:0400c0009c0200009e
:020000040000fa
:0400c4009c0200009a
:020000040000fa
:0400c8009c02000096
:020000040000fa
:0400cc009c02000092
:020000040000fa
:0400d0009c0200008e
:020000040000fa
:0400d4009c0200008a
:020000040000fa
:0400d8009c02000086
:020000040000fa
:0400dc009c02000082
:020000040000fa
:0400e0009c0200007e
:020000040000fa
:0400e4009c0200007a
:020000040000fa
:0400e8009c02000076
:020000040000fa
:0400ec009c02000072
:020000040000fa
:0400f0009c0200006e
:020000040000fa
:0400f4009c0200006a
:020000040000fa
:0400f8009c02000066
:020000040000fa
:0400fc009c02000062
:020000040000fa
:040100009c0200005d
:020000040000fa
:040104009c02000059
:020000040000fa
:040108009c02000055
:020000040000fa
:04010c009c02000051
:020000040000fa
:0401100004020000e5
:020000040000fa
:040114009c02000049
:020000040000fa
:040118009c02000045
:020000040000fa
:04011c009c02000041
:020000040000fa
:040120009c0200003d
:020000040000fa
:040124009c02000039
:020000040000fa
:040128009c02000035
:020000040000fa
:04012c009c02000031
:020000040000fa
:040130009c0200002d
:020000040000fa
:040134009c02000029
:020000040000fa
:040138009c02000025
:020000040000fa
:04013c009c02000021
:020000040000fa
:040140009c0200001d
:020000040000fa
:040144009c02000019
:020000040000fa
:040148009c02000015
:020000040000fa
:04014c009c02000011
:020000040000fa
:040150009c0200000d
:020000040000fa
:040154009c02000009
:020000040000fa
:040158009c02000005
:020000040000fa
:04015c009c02000001
:020000040000fa
:040160009c020000fd
:020000040000fa
:040164009c020000f9
:020000040000fa
:040168009c020000f5
:020000040000fa
:04016c009c020000f1
:020000040000fa
:040170009c020000ed
:020000040000fa
:040174009c020000e9
:020000040000fa
:040178009c020000e5
:020000040000fa
:04017c009c020000e1
:020000040000fa
:040180009c020000dd
:020000040000fa
:040184009c020000d9
:020000040000fa
:040188009c020000d5
:020000040000fa
:04018c009c020000d1
:020000040000fa
:040190009c020000cd
:020000040000fa
:040194009c020000c9
:020000040000fa
:040198009c020000c5
:020000040000fa
:04019c009c020000c1
:020000040000fa
:0401a0009c020000bd
:020000040000fa
:0401a4009c020000b9
:020000040000fa
:0401a8009c020000b5
:020000040000fa
:0401ac009c020000b1
:020000040000fa
:0401b0009c020000ad
:020000040000fa
:0401b4009c020000a9
:020000040000fa
:0401b8009c020000a5
:020000040000fa
:0401bc009c020000a1
:020000040000fa
:0401c0009c0200009d
:020000040000fa
:0401c4009c02000099
:020000040000fa
:0401c8009c02000095
:020000040000fa
:0401cc009c02000091
:020000040000fa
:0401d0009c0200008d
:020000040000fa
:0401d4009c02000089
:020000040000fa
:0401d8009c02000085
:020000040000fa
:0401dc009c02000081
:020000040000fa
:0401e0009c0200007d
:020000040000fa
:0401e4009c02000079
:020000040000fa
:0401e8009c02000075
:020000040000fa
:0401ec009c02000071
:020000040000fa
:0401f0009c0200006d
:020000040000fa
:0401f4009c02000069
:020000040000fa
:0401f8009c02000065
:020000040000fa
:0401fc009c02000061
:020000040000fa
:100200002f8120000e7f24000e01880000000000d6
:10021000000020000000e000020032000001200089
:100220002002880014000700c50007000000e0005d
:1002300003003a0020a52000010020000200370042
:100240000000200001002000810f7000010032003a
:1002500014000700000020000000e000020032004f
:100260000000020000000000480902000000000039
:100270000040da000000fe004440a90020002000f9
:100280000000e00003003200100020009001880010
:100290004440a800000006008a1f78008b1f7800e9
:1002a00000000600a1028800800478000000eb0036
:1002b0001f003700e284440054a0b4009905ba003e
:1002c000e284440054a0b4009906ba00e2844400d9
:1002d00054a0b4000006eb00476fde00fd07b2003b
:1002e000ae018800636ce10003003a00eaff0700fa
:1002f0000000eb000e003700606ce10008003a00df
:10030000004deb000a05e800020039003420ec0043
:100310000af0a0008b05e900f9ff3e000400370059
:100320006168e100010032000086eb000b0007006d
:1003300019c7ba001905ba000e04e00003003a001c
:100340000a00e000dbff3a0000000600fe07b200f2
:10035000ae0288008a047800f5ff37000cd0a300b5
:10036000e20f4d001c00390089027800354dba00bb
:100370000a05e800020039003420ec000af0a00071
:100380008b05e9000f003200254dba000a05e80090
:10039000020039003420ec000af0a0008b05e900cf
:1003a000080032000c00e0000600320015cdba0053
:1003b0000a05e800020039003420ec000af0a00031
:1003c0008b05e9008984e80054a0b4000b00e0002c
:1003d000e2ff3a00000006009902ba00055d7800cd
:1003e0008b05e900f7ff3200c82ade00055d7800c2
:1003f0008b05e900f3ff32000c00e000f1ff320052
:1004000019ddba00eeff37003600f800809fbe000d
:10041000829fbe00849fbe00869fbe000000fa003f
:100420008f40a9007bc6a800e11f800000042000c7
:10043000008060000000e0000f003a0000000000b3
:10044000e01f8000620060000000e000fcff3a0056
:100450000120800000802000110098008040800072
:1004600081802000000040000080400010007800e3
:100470000020880001003700fcc3a90080408000f4
:100480000000e8008040880080408000e40f5000b9
:1004900001003a001028ef0000482800e101200088
:1004a000f20307007bc6a9000080fa004f03be00dc
:1004b0004f02be004f01be004f00be003600f900e3
:1004c0000040060000a0fe003200f8003400f800f2
:1004d000881f780018002000a8018800180020005c
:1004e000980188004f0478000000fa008860a90095
:1004f0009021ef00d03380004300de0061406000b7
:1005000000c0ea00614060000080fb006100600004
:100510004300dd00d13380000130a10001007000f4
:10052000d03388000080fa003400f9003200f9006e
:100530000080fe00004006000040da000000fe00df
:10054000000005000001be001b0007000470a700aa
:1005500003f0a10003f8a30013003a006509b100fd
:1005600010003200090035006928e1000200350062
:1005700001002800000005000000400081804800c4
:100580008502e900fcff3a0000000600f88f4200f7
:10059000050035008100d1000080d3008502e8000d
:1005a000fcff3a00000006008000eb0000000500a0
:1005b0006011b80017013700c70ade00f107b2006a
:1005c000f50fb20008003200e1cf42000200320015
:1005d0000170a00024000500810f700001003200ae
:1005e0000408050044000500810f700002003a0075
:1005f000140005008502e9000000400081c04800a9
:10060000fcff3b000170a00024000500038368008c
:100610000700280007036300470ade000480a100ea
:10062000c71ade000580a100f70f20000720e100b7
:10063000420032000728e10040003200889fbe00df
:100640008a9fbe008c1f7800f107b200f307b2004a
:100650000400e000640032000170a0000500e0002a
:10066000680032000370a00085054200eb07b1006e
:100670000204b8000302b8008484440060854a0084
:10068000020ab800848444000a854a00030ab800bc
:1006900004054500040033000804d0008984d2001a
:1006a0000a85d2008b05e9006158e1003d00350064
:1006b0000210200009016100030820008981610007
:1006c000f70720008783640008867300c84cde00ab
:1006d000c853dd00878474004855de000300e00045
:1006e0000600320082037600040032008904e8002c
:1006f00060054d000a88a3000c003a00f70f2000a7
:100700000758e10044003d000a70a100c75ddd000c
:100710000a8575008a007300090078004f0678008a
:100720004f05be004f04be00000006000a05d100c0
:100730008984d3008b05e800f0ff3700881f78001c
:100740000604780090000700070278000001fd0011
:100750008101fd008c00070087027800850372008c
:100760000778a300050032000001fd008101fd00b3
:100770009f0007004f047800000006008503720008
:100780000748a30003003200f0ff2f00f1ff27000d
:10079000f8ff37000000200001f827008880700073
:1007a000f4ff3700880178004848dd00808171003f
:1007b0004848de00c850dd0001007000c850de006f
:1007c000060478000b01780016000700888070008e
:1007d000d2ff37000500e0000500320017002000be
:1007e0003a0007009dff370081037000f9ff3a00cf
:1007f000860078004f0678004f05be004f04be000b
:100800000000050083037100f9ff3200270020007b
:100810002e00070094ff370001f827008680700043
:10082000f4ff37000100e0002600320061011100f2
:100830007810e10023003c006022b8007010e10055
:100840000400350080027800010078008000eb0091
:10085000700151000200e000090034007003110033
:10086000062add00822ade008603dd008782720010
:100870000200de00860bdd00070070008208de004b
:1008800084817100f4ff270004826200848171007a
:1008900004002800848262006102600005f0a60066
:1008a0000000060004827100070032000000e8002a
:1008b000e0804800000006000002be006000b800b2
:1008c000efff37006000b80000000600889fbe0000
:1008d0000004eb006138e10016003a000100e0007e
:1008e00008003a00c800de004800dd008800200053
:1008f0000100e00003003a00c800de004800dd000f
:10090000680444008184cf00e98454000600340068
:100910008908dd00f08314008703de008780700003
:100920000900dd0009044400610214004f04be0008
:10093000000006000300e00008003a00c811de00d5
:100940004811dd00880020000300e00003003a00a9
:10095000c811de004811dd00680444008384cf0024
:10096000e9845400060034008919dd00f083140086
:100970008713de00878171000911dd00090444003e
:10098000e1021400e9ff37002700200001f0a70072
:1009900017002000470bde00f60fb2000400320003
:1009a0000643e8000a0032004702b30000000600d8
:1009b00001037800f607b2000603700002003a0057
:1009c0000703b300000006008702b3000000060022
:1009d00001037800f607b20006037000020032003f
:1009e0000770a000000006000760a00000000600dd
:1009f0000478a300040032000578a300030032004d
:100a00000168a30001003a000200be000160a000de
:100a100000000600889fbe008a9fbe000082700012
:100a20000402710004827100260032000004be003e
:100a30000200be006011b8006b0920009502200082
:100a40000182cf000a0039000541b1000082cf00c9
:100a5000070039000541b1000982cf0004003900c8
:100a60000541b1000882cf00010039000541b10005
:100a700005425200120032000a003b0082817100e0
:100a8000610164008100d1000080d3008984d3001b
:100a90000884d3008b05e8000442e800f7ff3a0021
:100aa000070037000804440089844c000000480017
:100ab000818048008b05e9000442e900f9ff3a0013
:100ac000030007004f05be004f04be0000000600f3
:100ad00081002000618055000b003d000b002000cc
:100ae00061fe2f000100e1001d00340082817100d1
:100af000610164008904d1000884d3000000e8008b
:100b0000faff3a00710020006100640003007000e9
:100b1000020060000900320061044400e0844c00df
:100b20000988a500050032008b05e8006808e1008f
:100b300002003a008904d1000884d300f20f20009b
:100b40000258e10005003d00c75ddd00f907b20075
:100b50008980750008007800000006000bf8270067
:080b60008b0078000000050085
:020000040000fa
:100b68000400fa00000f7800110798009e0090001a
:100b780040062000808f500002003600400620000a
:100b880010079800f0072000a0118800f007200047
:100b9800f0118800f0072000401288001e0078003d
:100ba800e10f500025003a003022ef003222ef001a
:100bb80076c6a900d13e800000f82f0000806000b2
:100bc800d000b300d03e880031a2a9008111800076
:100bd80000c0210001007000801188003302a900c4
:100be80032e2a90090118000f001b3009011880052
:100bf80032a2a900e0072000900c8800900c800029
:100c08008000e8001e0090000088b900000078000d
:100c1800c200de00b04721000008b8000100d10082
:100c2800b01188008111800080ff2f0000806000d3
:100c38006000b30080118800510037001e00780062
:100c4800e20f500026003a003a22ef003c22ef0063
:100c580076e6a900d13e8000f00f28008080600071
:100c680000e0200001007000d03e88003ba2a900ef
:100c7800d111800000c0210001007000d01188004f
:100c88003d02a9003ce2a900e0118000f001b30098
:100c9800e01188003ca2a900e0072000e00c8800d1
:100ca800e00c80008000e8001e0090000088b90079
:100cb80000007800c200de00b04721000008b8003c
:100cc8000100d10000128800d111800080ff2f00a0
:100cd800008060006000b300d01188002800370051
:100ce8001e007800e30f500025003a004422ef0070
:100cf8004622ef0076a6a900c13e8000f00f28002a
:100d08008080600000f0200001007000c03e880074
:100d180045a2a9002112800000c021000100700036
:100d2800201288004702a90046e2a900301280007c
:100d3800f001b3003012880046a2a900e0072000a5
:100d4800f00c8800f00c80008000e8001e00900085
:100d58000088b90000007800c200de00b04721001a
:100d68000008b8000100d10050128800211280004c
:100d780080ff2f00008060006000b3002012880010
:100d88000080fa00000006000400fa00000f780056
:100d9800110798009e00900040062000808f5000a8
:100da8000200360040062000100798001e00780058
:100db800e10f50001b003a008011800067006000be
:100dc8000000e00005003a008111800080ff2f003c
:100dd800008060006000b300801188001e00900051
:100de8000000e00004003a008111800080ff2f001d
:100df8000080600080118800900c80008000e8006e
:100e08001e0090000088b90000007800c200de00d3
:100e1800b04721000008b8000100d100b0118800d7
:100e28003b0037001e007800e20f50001b003a001c
:100e3800d0118000670060000000e00005003a0063
:100e4800d111800080ff2f00008060006000b30097
:100e5800d01188001e0090000000e00004003a0055
:100e6800d111800080ff2f0000806000d011880021
:100e7800e00c80008000e8001e0090000088b900a7
:100e880000007800c200de00b04721000008b8006a
:100e98000100d100001288001d0037001e007800f4
:100ea800e30f50001a003a0020128000670060002b
:100eb8000000e00005003a002112800080ff2f00aa
:100ec800008060006000b300201288001e009000bf
:100ed8000000e00004003a002112800080ff2f008b
:100ee8000080600020128800f00c80008000e8007c
:100ef8001e0090000088b90000007800c200de00e3
:100f0800b04721000008b8000100d1005012880045
:100f18000080fa00000006000000fa009be4a90027
:100f28009b44a90030002000c02488007f26a90027
:100f38009be4a80076c6a9000080fa00000006001d
:100f48000400fa0020479800314798000000eb00a1
:100f5800000f78009a04a80000000000d024800048
:100f6800610060000000e000fcff3a002e409000a5
:100f78008080fb00e00f200000806000b024880023
:100f880000000000f12480000000240000806000c0
:100f98000000e000fbff3a0000000000f1248000a0
:100fa80000002800008060000000e000fbff3a001d
:100fb8003e4090000080fb00b02488000000000044
:100fc800f124800000002400008060000000e000a0
:100fd800fbff3a0000000000f12480000000280018
:100fe800008060000000e000fbff3a009a24a8009f
:100ff80000000000d0248000620060000000e000d3
:10100800fcff3a002e4090000004a0000080fb0086
:10101800b024880000000000f124800000002400b3
:10102800008060000000e000fbff3a0000000000c4
:10103800f124800000002800008060000000e0002b
:10104800fbff3a009a64a80000000000d02480004a
:10105800680060000000e000fcff3a0000000000ab
:10106800f0248000620060000000e000fcff320015
:10107800a1248000010f78001e0078004800dd00e0
:10108800000f78009a84a80000000000d024800097
:10109800700060000000e000fcff3a009a64a800bd
:1010a80000000000d0248000680060000000e0001c
:1010b800fcff3a0000000000f0248000620060009d
:1010c8000000e000fcff3200a02480001e0f70002a
:1010d8009a84a80000000000d024800070006000fe
:1010e8000000e000fcff3a009a44a800000000005d
:1010f800d0248000640060000000e000fcff3a009b
:101108001e0078000080fa00000006000400fa00c3
:10111800004f7800110798009a04a800000000000a
:10112800d0248000610060000000e000fcff3a006d
:101138009e80fb00e00f200000806000b024880043
:1011480000000000f12480000000240000806000fe
:101158000000e000fbff3a0000000000f1248000de
:1011680000002800008060000000e000fbff3a005b
:1011780050002000b024880000000000f124800006
:1011880000002400008060000000e000fbff3a003f
:1011980000000000f12480000000280000806000aa
:1011a8000000e000fbff3a001e0090004800de004f
:1011b800b024880000000000f12480000000240012
:1011c800008060000000e000fbff3a000000000023
:1011d800f124800000002800008060000000e0008a
:1011e800fbff3a009e009000b12488000000000038
:1011f800f124800000002400008060000000e0006e
:10120800fbff3a0000000000f124800000002800e5
:10121800008060000000e000fbff3a009a44a8004c
:1012280000000000d0248000640060000000e0009e
:10123800fcff3a000080fa00000006000000fa00f7
:1012480000c1a9003e00070033ff0700c18d26003a
:1012580000c8b300adff07008000eb0010002000bd
:101268003ffe07008000eb00200020003cfe070046
:101278008000eb003000200039fe070000c1a80004
:101288000080fa00000006000600fa00ebff0700e5
:10129800b104200010002000bbfe070031c0b300dd
:1012a80000c8b30026ff07008000eb00befc070063
:1012b800a229200003782300d2fc070002002000a6
:1012c800031a2400cffc07009cfc070000007800ec
:1012d800000f780041c0b30000c8b30018ff070032
:1012e8008000eb00b0fc0700a2292000037823004f
:1012f800c4fc070091fc0700000078001007980064
:1013080021c0b30000c8b3000dff07004300de0092
:101318004200dd00200798009e00780080802000b1
:10132800110098009e009000808020002100980005
:10133800ae0090008080200031009800d7ff370071
:101348000000fa0083e0a900f5e3a9009f40a90086
:10135800f5a3a9000024ef000804a8008f40a90005
:101368008f40a90021068000007020000100700055
:1013780020068800fcc3a900f583a900f543a8004e
:10138800f523a900f4c3a900f503a800f4e3a80015
:10139800f4a3a900f623ef007e66a9007866a800ea
:1013a8007666a80077c6a9007bc6a9006a06a900c8
:1013b8006a26a9007e46a9007e66a900c13d800074
:1013c80000fc2f0000806000a001b300c03d880031
:1013d800c13d8000f00f2c008080600000b021002b
:1013e80001007000c03d8800d13d800000fc2f0046
:1013f800008060003000b300d03d8800b13e80001e
:1014080000f82f00008060007000b300b03e880034
:10141800f5e3a8009f40a80083e0a8000080fa0038
:10142800000006000200fa00000f78009421ef0087
:101438009021ef009e007800910c88004105800003
:101448000000270001007000400588008860a9009e
:101458009860a80083e0a80095e1a8000080fa0041
:04146800000006007a
:020000040000fa
:10146c00f03fb1000180b10006003500ee03090029
:10147c0000000000403fb1000180b100fbff3d00c7
:10148c001000b000203fb0000200350000800900c1
:08149c00000000000000060042
:020000040000fa
:1014a4000008000010000000800000001008000088
:0c14b400020000008000000000000000aa
:020000040000fa
:020000040005f5
:045e0000ffffff00a1
:020000040000fa
:020000040005f5
:045e2000ffffff0081
:020000040000fa
:020000040005f5
:045e3000f8ffff0078
:020000040000fa
:020000040005f5
:045e3800bfffff00a9
:020000040000fa
:020000040005f5
:045e4000ffffff0061
:020000040000fa
:020000040005f5
:045e4800ffffff0059
:020000040000fa
:020000040005f5
:045e5000deffff0072
:020000040000fa
:020000040005f5
:045e5800ffffff0049
:00000001FF
